{
  "contractName": "BakerySwapPair",
  "abi": [
    {
      "inputs": [],
      "payable": false,
      "stateMutability": "nonpayable",
      "type": "constructor"
    },
    {
      "anonymous": false,
      "inputs": [
        {
          "indexed": true,
          "internalType": "address",
          "name": "owner",
          "type": "address"
        },
        {
          "indexed": true,
          "internalType": "address",
          "name": "spender",
          "type": "address"
        },
        {
          "indexed": false,
          "internalType": "uint256",
          "name": "value",
          "type": "uint256"
        }
      ],
      "name": "Approval",
      "type": "event"
    },
    {
      "anonymous": false,
      "inputs": [
        {
          "indexed": true,
          "internalType": "address",
          "name": "sender",
          "type": "address"
        },
        {
          "indexed": false,
          "internalType": "uint256",
          "name": "amount0",
          "type": "uint256"
        },
        {
          "indexed": false,
          "internalType": "uint256",
          "name": "amount1",
          "type": "uint256"
        },
        {
          "indexed": true,
          "internalType": "address",
          "name": "to",
          "type": "address"
        }
      ],
      "name": "Burn",
      "type": "event"
    },
    {
      "anonymous": false,
      "inputs": [
        {
          "indexed": true,
          "internalType": "address",
          "name": "sender",
          "type": "address"
        },
        {
          "indexed": false,
          "internalType": "uint256",
          "name": "amount0",
          "type": "uint256"
        },
        {
          "indexed": false,
          "internalType": "uint256",
          "name": "amount1",
          "type": "uint256"
        }
      ],
      "name": "Mint",
      "type": "event"
    },
    {
      "anonymous": false,
      "inputs": [
        {
          "indexed": true,
          "internalType": "address",
          "name": "sender",
          "type": "address"
        },
        {
          "indexed": false,
          "internalType": "uint256",
          "name": "amount0In",
          "type": "uint256"
        },
        {
          "indexed": false,
          "internalType": "uint256",
          "name": "amount1In",
          "type": "uint256"
        },
        {
          "indexed": false,
          "internalType": "uint256",
          "name": "amount0Out",
          "type": "uint256"
        },
        {
          "indexed": false,
          "internalType": "uint256",
          "name": "amount1Out",
          "type": "uint256"
        },
        {
          "indexed": true,
          "internalType": "address",
          "name": "to",
          "type": "address"
        }
      ],
      "name": "Swap",
      "type": "event"
    },
    {
      "anonymous": false,
      "inputs": [
        {
          "indexed": false,
          "internalType": "uint112",
          "name": "reserve0",
          "type": "uint112"
        },
        {
          "indexed": false,
          "internalType": "uint112",
          "name": "reserve1",
          "type": "uint112"
        }
      ],
      "name": "Sync",
      "type": "event"
    },
    {
      "anonymous": false,
      "inputs": [
        {
          "indexed": true,
          "internalType": "address",
          "name": "from",
          "type": "address"
        },
        {
          "indexed": true,
          "internalType": "address",
          "name": "to",
          "type": "address"
        },
        {
          "indexed": false,
          "internalType": "uint256",
          "name": "value",
          "type": "uint256"
        }
      ],
      "name": "Transfer",
      "type": "event"
    },
    {
      "constant": true,
      "inputs": [],
      "name": "DOMAIN_SEPARATOR",
      "outputs": [
        {
          "internalType": "bytes32",
          "name": "",
          "type": "bytes32"
        }
      ],
      "payable": false,
      "stateMutability": "view",
      "type": "function"
    },
    {
      "constant": true,
      "inputs": [],
      "name": "MINIMUM_LIQUIDITY",
      "outputs": [
        {
          "internalType": "uint256",
          "name": "",
          "type": "uint256"
        }
      ],
      "payable": false,
      "stateMutability": "view",
      "type": "function"
    },
    {
      "constant": true,
      "inputs": [],
      "name": "PERMIT_TYPEHASH",
      "outputs": [
        {
          "internalType": "bytes32",
          "name": "",
          "type": "bytes32"
        }
      ],
      "payable": false,
      "stateMutability": "view",
      "type": "function"
    },
    {
      "constant": true,
      "inputs": [
        {
          "internalType": "address",
          "name": "",
          "type": "address"
        },
        {
          "internalType": "address",
          "name": "",
          "type": "address"
        }
      ],
      "name": "allowance",
      "outputs": [
        {
          "internalType": "uint256",
          "name": "",
          "type": "uint256"
        }
      ],
      "payable": false,
      "stateMutability": "view",
      "type": "function"
    },
    {
      "constant": false,
      "inputs": [
        {
          "internalType": "address",
          "name": "spender",
          "type": "address"
        },
        {
          "internalType": "uint256",
          "name": "value",
          "type": "uint256"
        }
      ],
      "name": "approve",
      "outputs": [
        {
          "internalType": "bool",
          "name": "",
          "type": "bool"
        }
      ],
      "payable": false,
      "stateMutability": "nonpayable",
      "type": "function"
    },
    {
      "constant": true,
      "inputs": [
        {
          "internalType": "address",
          "name": "",
          "type": "address"
        }
      ],
      "name": "balanceOf",
      "outputs": [
        {
          "internalType": "uint256",
          "name": "",
          "type": "uint256"
        }
      ],
      "payable": false,
      "stateMutability": "view",
      "type": "function"
    },
    {
      "constant": true,
      "inputs": [],
      "name": "decimals",
      "outputs": [
        {
          "internalType": "uint8",
          "name": "",
          "type": "uint8"
        }
      ],
      "payable": false,
      "stateMutability": "view",
      "type": "function"
    },
    {
      "constant": true,
      "inputs": [],
      "name": "factory",
      "outputs": [
        {
          "internalType": "address",
          "name": "",
          "type": "address"
        }
      ],
      "payable": false,
      "stateMutability": "view",
      "type": "function"
    },
    {
      "constant": true,
      "inputs": [],
      "name": "kLast",
      "outputs": [
        {
          "internalType": "uint256",
          "name": "",
          "type": "uint256"
        }
      ],
      "payable": false,
      "stateMutability": "view",
      "type": "function"
    },
    {
      "constant": true,
      "inputs": [],
      "name": "name",
      "outputs": [
        {
          "internalType": "string",
          "name": "",
          "type": "string"
        }
      ],
      "payable": false,
      "stateMutability": "view",
      "type": "function"
    },
    {
      "constant": true,
      "inputs": [
        {
          "internalType": "address",
          "name": "",
          "type": "address"
        }
      ],
      "name": "nonces",
      "outputs": [
        {
          "internalType": "uint256",
          "name": "",
          "type": "uint256"
        }
      ],
      "payable": false,
      "stateMutability": "view",
      "type": "function"
    },
    {
      "constant": false,
      "inputs": [
        {
          "internalType": "address",
          "name": "owner",
          "type": "address"
        },
        {
          "internalType": "address",
          "name": "spender",
          "type": "address"
        },
        {
          "internalType": "uint256",
          "name": "value",
          "type": "uint256"
        },
        {
          "internalType": "uint256",
          "name": "deadline",
          "type": "uint256"
        },
        {
          "internalType": "uint8",
          "name": "v",
          "type": "uint8"
        },
        {
          "internalType": "bytes32",
          "name": "r",
          "type": "bytes32"
        },
        {
          "internalType": "bytes32",
          "name": "s",
          "type": "bytes32"
        }
      ],
      "name": "permit",
      "outputs": [],
      "payable": false,
      "stateMutability": "nonpayable",
      "type": "function"
    },
    {
      "constant": true,
      "inputs": [],
      "name": "price0CumulativeLast",
      "outputs": [
        {
          "internalType": "uint256",
          "name": "",
          "type": "uint256"
        }
      ],
      "payable": false,
      "stateMutability": "view",
      "type": "function"
    },
    {
      "constant": true,
      "inputs": [],
      "name": "price1CumulativeLast",
      "outputs": [
        {
          "internalType": "uint256",
          "name": "",
          "type": "uint256"
        }
      ],
      "payable": false,
      "stateMutability": "view",
      "type": "function"
    },
    {
      "constant": true,
      "inputs": [],
      "name": "symbol",
      "outputs": [
        {
          "internalType": "string",
          "name": "",
          "type": "string"
        }
      ],
      "payable": false,
      "stateMutability": "view",
      "type": "function"
    },
    {
      "constant": true,
      "inputs": [],
      "name": "token0",
      "outputs": [
        {
          "internalType": "address",
          "name": "",
          "type": "address"
        }
      ],
      "payable": false,
      "stateMutability": "view",
      "type": "function"
    },
    {
      "constant": true,
      "inputs": [],
      "name": "token1",
      "outputs": [
        {
          "internalType": "address",
          "name": "",
          "type": "address"
        }
      ],
      "payable": false,
      "stateMutability": "view",
      "type": "function"
    },
    {
      "constant": true,
      "inputs": [],
      "name": "totalSupply",
      "outputs": [
        {
          "internalType": "uint256",
          "name": "",
          "type": "uint256"
        }
      ],
      "payable": false,
      "stateMutability": "view",
      "type": "function"
    },
    {
      "constant": false,
      "inputs": [
        {
          "internalType": "address",
          "name": "to",
          "type": "address"
        },
        {
          "internalType": "uint256",
          "name": "value",
          "type": "uint256"
        }
      ],
      "name": "transfer",
      "outputs": [
        {
          "internalType": "bool",
          "name": "",
          "type": "bool"
        }
      ],
      "payable": false,
      "stateMutability": "nonpayable",
      "type": "function"
    },
    {
      "constant": false,
      "inputs": [
        {
          "internalType": "address",
          "name": "from",
          "type": "address"
        },
        {
          "internalType": "address",
          "name": "to",
          "type": "address"
        },
        {
          "internalType": "uint256",
          "name": "value",
          "type": "uint256"
        }
      ],
      "name": "transferFrom",
      "outputs": [
        {
          "internalType": "bool",
          "name": "",
          "type": "bool"
        }
      ],
      "payable": false,
      "stateMutability": "nonpayable",
      "type": "function"
    },
    {
      "constant": true,
      "inputs": [],
      "name": "getReserves",
      "outputs": [
        {
          "internalType": "uint112",
          "name": "_reserve0",
          "type": "uint112"
        },
        {
          "internalType": "uint112",
          "name": "_reserve1",
          "type": "uint112"
        },
        {
          "internalType": "uint32",
          "name": "_blockTimestampLast",
          "type": "uint32"
        }
      ],
      "payable": false,
      "stateMutability": "view",
      "type": "function"
    },
    {
      "constant": false,
      "inputs": [
        {
          "internalType": "address",
          "name": "_token0",
          "type": "address"
        },
        {
          "internalType": "address",
          "name": "_token1",
          "type": "address"
        }
      ],
      "name": "initialize",
      "outputs": [],
      "payable": false,
      "stateMutability": "nonpayable",
      "type": "function"
    },
    {
      "constant": false,
      "inputs": [
        {
          "internalType": "address",
          "name": "to",
          "type": "address"
        }
      ],
      "name": "mint",
      "outputs": [
        {
          "internalType": "uint256",
          "name": "liquidity",
          "type": "uint256"
        }
      ],
      "payable": false,
      "stateMutability": "nonpayable",
      "type": "function"
    },
    {
      "constant": false,
      "inputs": [
        {
          "internalType": "address",
          "name": "to",
          "type": "address"
        }
      ],
      "name": "burn",
      "outputs": [
        {
          "internalType": "uint256",
          "name": "amount0",
          "type": "uint256"
        },
        {
          "internalType": "uint256",
          "name": "amount1",
          "type": "uint256"
        }
      ],
      "payable": false,
      "stateMutability": "nonpayable",
      "type": "function"
    },
    {
      "constant": false,
      "inputs": [
        {
          "internalType": "uint256",
          "name": "amount0Out",
          "type": "uint256"
        },
        {
          "internalType": "uint256",
          "name": "amount1Out",
          "type": "uint256"
        },
        {
          "internalType": "address",
          "name": "to",
          "type": "address"
        }
      ],
      "name": "swap",
      "outputs": [],
      "payable": false,
      "stateMutability": "nonpayable",
      "type": "function"
    },
    {
      "constant": false,
      "inputs": [
        {
          "internalType": "address",
          "name": "to",
          "type": "address"
        }
      ],
      "name": "skim",
      "outputs": [],
      "payable": false,
      "stateMutability": "nonpayable",
      "type": "function"
    },
    {
      "constant": false,
      "inputs": [],
      "name": "sync",
      "outputs": [],
      "payable": false,
      "stateMutability": "nonpayable",
      "type": "function"
    }
  ],
  "bytecode": "0x60806040526001600c5534801561001557600080fd5b5060405146908060526122cf8239604080519182900360520182208282018252600a83526942616b657279204c507360b01b6020938401528151808301835260018152603160f81b908401528151808401919091527f5ed039ad5f03c2661cf61a8d716c2a77f59bd0432e1ff6204eaae6153df7eacc818301527fc89efdaa54c0f20c7adf612882df0950f5a951637e0307cdcb4c672f298b8bc6606082015260808101949094523060a0808601919091528151808603909101815260c09094019052825192019190912060035550600580546001600160a01b031916331790556121ca806101056000396000f3fe608060405234801561001057600080fd5b50600436106101495760003560e01c806306fdde031461014e5780630902f1ac146101cb578063095ea7b3146102035780630dfe16811461024357806318160ddd1461026757806323b872dd1461028157806330adf81f146102b7578063313ce567146102bf5780633644e515146102dd578063485cc955146102e55780635909c0d5146103155780635a3d54931461031d5780636a627842146103255780636d9a640a1461034b57806370a082311461037d5780637464fc3d146103a35780637ecebe00146103ab57806389afcb44146103d157806395d89b4114610410578063a9059cbb14610418578063ba9a7a5614610444578063bc25cf771461044c578063c45a015514610472578063d21220a71461047a578063d505accf14610482578063dd62ed3e146104d3578063fff6cae914610501575b600080fd5b610156610509565b6040805160208082528351818301528351919283929083019185019080838360005b83811015610190578181015183820152602001610178565b50505050905090810190601f1680156101bd5780820380516001836020036101000a031916815260200191505b509250505060405180910390f35b6101d361052f565b604080516001600160701b03948516815292909316602083015263ffffffff168183015290519081900360600190f35b61022f6004803603604081101561021957600080fd5b506001600160a01b038135169060200135610559565b604080519115158252519081900360200190f35b61024b610570565b604080516001600160a01b039092168252519081900360200190f35b61026f61057f565b60408051918252519081900360200190f35b61022f6004803603606081101561029757600080fd5b506001600160a01b03813581169160208101359091169060400135610585565b61026f61061f565b6102c7610631565b6040805160ff9092168252519081900360200190f35b61026f610636565b610313600480360360408110156102fb57600080fd5b506001600160a01b038135811691602001351661063c565b005b61026f6106c5565b61026f6106cb565b61026f6004803603602081101561033b57600080fd5b50356001600160a01b03166106d1565b6103136004803603606081101561036157600080fd5b50803590602081013590604001356001600160a01b03166109d7565b61026f6004803603602081101561039357600080fd5b50356001600160a01b0316610e4d565b61026f610e5f565b61026f600480360360208110156103c157600080fd5b50356001600160a01b0316610e65565b6103f7600480360360208110156103e757600080fd5b50356001600160a01b0316610e77565b6040805192835260208301919091528051918290030190f35b610156611217565b61022f6004803603604081101561042e57600080fd5b506001600160a01b038135169060200135611236565b61026f611243565b6103136004803603602081101561046257600080fd5b50356001600160a01b0316611249565b61024b6113ae565b61024b6113bd565b610313600480360360e081101561049857600080fd5b506001600160a01b03813581169160208101359091169060408101359060608101359060ff6080820135169060a08101359060c001356113cc565b61026f600480360360408110156104e957600080fd5b506001600160a01b03813581169160200135166115ac565b6103136115c9565b6040518060400160405280600a81526020016942616b657279204c507360b01b81525081565b6008546001600160701b0380821692600160701b830490911691600160e01b900463ffffffff1690565b6000610566338484611725565b5060015b92915050565b6006546001600160a01b031681565b60005481565b6001600160a01b03831660009081526002602090815260408083203384529091528120546000191461060a576001600160a01b03841660009081526002602090815260408083203384529091529020546105e5908363ffffffff61178716565b6001600160a01b03851660009081526002602090815260408083203384529091529020555b6106158484846117d0565b5060019392505050565b60008051602061217683398151915281565b601281565b60035481565b6005546001600160a01b03163314610697576040805162461bcd60e51b81526020600482015260196024820152782130b5b2b93ca9bbb0b82830b4b91d102327a92124a22222a760391b604482015290519081900360640190fd5b600680546001600160a01b039384166001600160a01b03199182161790915560078054929093169116179055565b60095481565b600a5481565b6000600c54600114610718576040805162461bcd60e51b815260206004820152601660248201526000805160206120a0833981519152604482015290519081900360640190fd5b6000600c8190558061072861052f565b50600654604080516370a0823160e01b815230600482015290519395509193506000926001600160a01b03909116916370a08231916024808301926020929190829003018186803b15801561077c57600080fd5b505afa158015610790573d6000803e3d6000fd5b505050506040513d60208110156107a657600080fd5b5051600754604080516370a0823160e01b815230600482015290519293506000926001600160a01b03909216916370a0823191602480820192602092909190829003018186803b1580156107f957600080fd5b505afa15801561080d573d6000803e3d6000fd5b505050506040513d602081101561082357600080fd5b505190506000610842836001600160701b03871663ffffffff61178716565b9050600061085f836001600160701b03871663ffffffff61178716565b9050600061086d8787611878565b600054909150806108b6576108a26103e8610896610891878763ffffffff6119d616565b611a2f565b9063ffffffff61178716565b98506108b160006103e8611a81565b610905565b6109026001600160701b0389166108d3868463ffffffff6119d616565b816108da57fe5b046001600160701b0389166108f5868563ffffffff6119d616565b816108fc57fe5b04611b05565b98505b600089116109445760405162461bcd60e51b815260040180806020018281038252602d815260200180612020602d913960400191505060405180910390fd5b61094e8a8a611a81565b61095a86868a8a611b1b565b811561098a57600854610986906001600160701b0380821691600160701b90041663ffffffff6119d616565b600b555b6040805185815260208101859052815133927f4c209b5fc8ad50758f13e2e1088ba56a560dff690a1c6fef26394f4c03821c4f928290030190a250506001600c5550949695505050505050565b600c54600114610a1c576040805162461bcd60e51b815260206004820152601660248201526000805160206120a0833981519152604482015290519081900360640190fd5b6000600c5582151580610a2f5750600082115b610a6a5760405162461bcd60e51b815260040180806020018281038252602a81526020018061204d602a913960400191505060405180910390fd5b600080610a7561052f565b5091509150816001600160701b031685108015610a9a5750806001600160701b031684105b610ad55760405162461bcd60e51b81526004018080602001828103825260268152602001806120e26026913960400191505060405180910390fd5b60065460075460009182916001600160a01b03918216919081169087168214801590610b135750806001600160a01b0316876001600160a01b031614155b610b61576040805162461bcd60e51b815260206004820152601a60248201527942616b65727953776170506169723a20494e56414c49445f544f60301b604482015290519081900360640190fd5b8815610b7257610b7282888b611cd7565b8715610b8357610b8381888a611cd7565b604080516370a0823160e01b815230600482015290516001600160a01b038416916370a08231916024808301926020929190829003018186803b158015610bc957600080fd5b505afa158015610bdd573d6000803e3d6000fd5b505050506040513d6020811015610bf357600080fd5b5051604080516370a0823160e01b815230600482015290519195506001600160a01b038316916370a0823191602480820192602092909190829003018186803b158015610c3f57600080fd5b505afa158015610c53573d6000803e3d6000fd5b505050506040513d6020811015610c6957600080fd5b5051925060009150506001600160701b0385168890038311610c8c576000610c9b565b87856001600160701b03160383035b9050600087856001600160701b0316038311610cb8576000610cc7565b87856001600160701b03160383035b90506000821180610cd85750600081115b610d135760405162461bcd60e51b81526004018080602001828103825260298152602001806120776029913960400191505060405180910390fd5b6000610d3b610d2984600363ffffffff6119d616565b610896876103e863ffffffff6119d616565b90506000610d53610d2984600363ffffffff6119d616565b9050610d84620f4240610d786001600160701b038b8116908b1663ffffffff6119d616565b9063ffffffff6119d616565b610d94838363ffffffff6119d616565b1015610ddb576040805162461bcd60e51b815260206004820152601160248201527042616b65727953776170506169723a204b60781b604482015290519081900360640190fd5b5050610de984848888611b1b565b60408051838152602081018390528082018b9052606081018a905290516001600160a01b0389169133917fd78ad95fa46c994b6551d0da85fc275fe613ce37657fb8d5e3d130840159d8229181900360800190a350506001600c5550505050505050565b60016020526000908152604090205481565b600b5481565b60046020526000908152604090205481565b600080600c54600114610ebf576040805162461bcd60e51b815260206004820152601660248201526000805160206120a0833981519152604482015290519081900360640190fd5b6000600c81905580610ecf61052f565b50600654600754604080516370a0823160e01b815230600482015290519496509294506001600160a01b039182169391169160009184916370a08231916024808301926020929190829003018186803b158015610f2b57600080fd5b505afa158015610f3f573d6000803e3d6000fd5b505050506040513d6020811015610f5557600080fd5b5051604080516370a0823160e01b815230600482015290519192506000916001600160a01b038516916370a08231916024808301926020929190829003018186803b158015610fa357600080fd5b505afa158015610fb7573d6000803e3d6000fd5b505050506040513d6020811015610fcd57600080fd5b505130600090815260016020526040812054919250610fec8888611878565b60005490915080611003848763ffffffff6119d616565b8161100a57fe5b049a508061101e848663ffffffff6119d616565b8161102557fe5b04995060008b118015611038575060008a115b6110735760405162461bcd60e51b815260040180806020018281038252602d815260200180612129602d913960400191505060405180910390fd5b61107d3084611e6d565b611088878d8d611cd7565b611093868d8c611cd7565b604080516370a0823160e01b815230600482015290516001600160a01b038916916370a08231916024808301926020929190829003018186803b1580156110d957600080fd5b505afa1580156110ed573d6000803e3d6000fd5b505050506040513d602081101561110357600080fd5b5051604080516370a0823160e01b815230600482015290519196506001600160a01b038816916370a0823191602480820192602092909190829003018186803b15801561114f57600080fd5b505afa158015611163573d6000803e3d6000fd5b505050506040513d602081101561117957600080fd5b5051935061118985858b8b611b1b565b81156111b9576008546111b5906001600160701b0380821691600160701b90041663ffffffff6119d616565b600b555b604080518c8152602081018c905281516001600160a01b038f169233927fdccd412f0b1252819cb1fd330b93224ca42612892bb3f4f789976e6d81936496929081900390910190a35050505050505050506001600c81905550915091565b604051806040016040528060038152602001620424c560ec1b81525081565b60006105663384846117d0565b6103e881565b600c5460011461128e576040805162461bcd60e51b815260206004820152601660248201526000805160206120a0833981519152604482015290519081900360640190fd5b6000600c55600654600754600854604080516370a0823160e01b815230600482015290516001600160a01b03948516949093169261133d9285928792611338926001600160701b03169185916370a0823191602480820192602092909190829003018186803b15801561130057600080fd5b505afa158015611314573d6000803e3d6000fd5b505050506040513d602081101561132a57600080fd5b50519063ffffffff61178716565b611cd7565b600854604080516370a0823160e01b815230600482015290516113a4928492879261133892600160701b90046001600160701b0316916001600160a01b038616916370a0823191602480820192602092909190829003018186803b15801561130057600080fd5b50506001600c5550565b6005546001600160a01b031681565b6007546001600160a01b031681565b4284101561141c576040805162461bcd60e51b815260206004820152601860248201527710985ad95c9e54ddd85c1091540c8c0e881156141254915160421b604482015290519081900360640190fd5b6003546001600160a01b0380891660008181526004602090815260408083208054600180820190925582516000805160206121768339815191528186015280840196909652958d166060860152608085018c905260a085019590955260c08085018b90528151808603909101815260e08501825280519083012061190160f01b6101008601526101028501969096526101228085019690965280518085039096018652610142840180825286519683019690962095839052610162840180825286905260ff89166101828501526101a284018890526101c28401879052519193926101e280820193601f1981019281900390910190855afa158015611525573d6000803e3d6000fd5b5050604051601f1901519150506001600160a01b0381161580159061155b5750886001600160a01b0316816001600160a01b0316145b6115965760405162461bcd60e51b81526004018080602001828103825260228152602001806120c06022913960400191505060405180910390fd5b6115a1898989611725565b505050505050505050565b600260209081526000928352604080842090915290825290205481565b600c5460011461160e576040805162461bcd60e51b815260206004820152601660248201526000805160206120a0833981519152604482015290519081900360640190fd5b6000600c55600654604080516370a0823160e01b8152306004820152905161171e926001600160a01b0316916370a08231916024808301926020929190829003018186803b15801561165f57600080fd5b505afa158015611673573d6000803e3d6000fd5b505050506040513d602081101561168957600080fd5b5051600754604080516370a0823160e01b815230600482015290516001600160a01b03909216916370a0823191602480820192602092909190829003018186803b1580156116d657600080fd5b505afa1580156116ea573d6000803e3d6000fd5b505050506040513d602081101561170057600080fd5b50516008546001600160701b0380821691600160701b900416611b1b565b6001600c55565b6001600160a01b03808416600081815260026020908152604080832094871680845294825291829020859055815185815291517f8c5be1e5ebec7d5bd14f71427d1e84f3dd0314c0f7b2291e5b200ac8c7c3b9259281900390910190a3505050565b60006117c983836040518060400160405280601e81526020017f536166654d6174683a207375627472616374696f6e206f766572666c6f770000815250611ef9565b9392505050565b6001600160a01b0383166000908152600160205260409020546117f9908263ffffffff61178716565b6001600160a01b03808516600090815260016020526040808220939093559084168152205461182e908263ffffffff611f9016565b6001600160a01b03808416600081815260016020908152604091829020949094558051858152905191939287169260008051602061215683398151915292918290030190a3505050565b600080600560009054906101000a90046001600160a01b03166001600160a01b031663017e7e586040518163ffffffff1660e01b815260040160206040518083038186803b1580156118c957600080fd5b505afa1580156118dd573d6000803e3d6000fd5b505050506040513d60208110156118f357600080fd5b5051600b546001600160a01b0382161580159450919250906119c25780156119bd5760006119366108916001600160701b0388811690881663ffffffff6119d616565b9050600061194383611a2f565b9050808211156119ba576000611971611962848463ffffffff61178716565b6000549063ffffffff6119d616565b905060006119968361198a86600563ffffffff6119d616565b9063ffffffff611f9016565b905060008183816119a357fe5b04905080156119b6576119b68782611a81565b5050505b50505b6119ce565b80156119ce576000600b555b505092915050565b6000826119e55750600061056a565b828202828482816119f257fe5b04146117c95760405162461bcd60e51b81526004018080602001828103825260218152602001806121086021913960400191505060405180910390fd5b60006003821115611a72575080600160028204015b81811015611a6c57809150600281828581611a5b57fe5b040181611a6457fe5b049050611a44565b50611a7c565b8115611a7c575060015b919050565b600054611a94908263ffffffff611f9016565b60009081556001600160a01b038316815260016020526040902054611abf908263ffffffff611f9016565b6001600160a01b03831660008181526001602090815260408083209490945583518581529351929391926000805160206121568339815191529281900390910190a35050565b6000818310611b1457816117c9565b5090919050565b6001600160701b038411801590611b3957506001600160701b038311155b611b85576040805162461bcd60e51b815260206004820152601860248201527742616b65727953776170506169723a204f564552464c4f5760401b604482015290519081900360640190fd5b60085463ffffffff42811691600160e01b90048116820390811615801590611bb557506001600160701b03841615155b8015611bc957506001600160701b03831615155b15611c3a578063ffffffff16611bf785611be286611fe8565b6001600160e01b03169063ffffffff611ffa16565b600980546001600160e01b03929092169290920201905563ffffffff8116611c2284611be287611fe8565b600a80546001600160e01b0392909216929092020190555b600880546001600160701b0319166001600160701b0388811691909117600160701b600160e01b031916600160701b8883168102919091176001600160e01b0316600160e01b63ffffffff871602179283905560408051848416815291909304909116602082015281517f1c411e9a96e071241c2f21f7726b17ae89e3cab4c78be50e062b03a9fffbbad1929181900390910190a1505050505050565b60408051808201825260198152787472616e7366657228616464726573732c75696e743235362960381b60209182015281516001600160a01b0385811660248301526044808301869052845180840390910181526064909201845291810180516001600160e01b031663a9059cbb60e01b1781529251815160009460609489169392918291908083835b60208310611d805780518252601f199092019160209182019101611d61565b6001836020036101000a0380198251168184511680821785525050505050509050019150506000604051808303816000865af19150503d8060008114611de2576040519150601f19603f3d011682016040523d82523d6000602084013e611de7565b606091505b5091509150818015611e15575080511580611e155750808060200190516020811015611e1257600080fd5b50515b611e66576040805162461bcd60e51b815260206004820152601f60248201527f42616b65727953776170506169723a205452414e534645525f4641494c454400604482015290519081900360640190fd5b5050505050565b6001600160a01b038216600090815260016020526040902054611e96908263ffffffff61178716565b6001600160a01b03831660009081526001602052604081209190915554611ec3908263ffffffff61178716565b60009081556040805183815290516001600160a01b03851691600080516020612156833981519152919081900360200190a35050565b60008184841115611f885760405162461bcd60e51b81526004018080602001828103825283818151815260200191508051906020019080838360005b83811015611f4d578181015183820152602001611f35565b50505050905090810190601f168015611f7a5780820380516001836020036101000a031916815260200191505b509250505060405180910390fd5b505050900390565b6000828201838110156117c9576040805162461bcd60e51b815260206004820152601b60248201527a536166654d6174683a206164646974696f6e206f766572666c6f7760281b604482015290519081900360640190fd5b6001600160701b0316600160701b0290565b60006001600160701b0382166001600160e01b0384168161201757fe5b04939250505056fe42616b65727953776170506169723a20494e53554646494349454e545f4c49515549444954595f4d494e54454442616b65727953776170506169723a20494e53554646494349454e545f4f55545055545f414d4f554e5442616b65727953776170506169723a20494e53554646494349454e545f494e5055545f414d4f554e5442616b65727953776170506169723a204c4f434b45440000000000000000000042616b6572795377617042455032303a20494e56414c49445f5349474e415455524542616b65727953776170506169723a20494e53554646494349454e545f4c4951554944495459536166654d6174683a206d756c7469706c69636174696f6e206f766572666c6f7742616b65727953776170506169723a20494e53554646494349454e545f4c49515549444954595f4255524e4544ddf252ad1be2c89b69c2b068fc378daa952ba7f163c4a11628f55a4df523b3ef6e71edae12b1b97f4d1f60370fef10105fa2faae0126114a169c64845d6126c9a265627a7a723158207591f64f91cd3e48904715636515f36eb3e2b99255aada0b563c6cd521b4aef864736f6c63430005100032454950373132446f6d61696e28737472696e67206e616d652c737472696e672076657273696f6e2c75696e7432353620636861696e49642c6164647265737320766572696679696e67436f6e747261637429",
  "source": "pragma solidity =0.5.16;\n\nimport './interfaces/IBakerySwapPair.sol';\nimport './BakerySwapBEP20.sol';\nimport './libraries/UQ112x112.sol';\nimport '@BakeryProject/bakery-swap-lib/contracts/token/BEP20/IBEP20.sol';\nimport './interfaces/IBakerySwapFactory.sol';\n\ncontract BakerySwapPair is IBakerySwapPair, BakerySwapBEP20 {\n    using SafeMath for uint256;\n    using UQ112x112 for uint224;\n\n    uint256 public constant MINIMUM_LIQUIDITY = 10**3;\n    bytes4 private constant SELECTOR = bytes4(keccak256(bytes('transfer(address,uint256)')));\n\n    address public factory;\n    address public token0;\n    address public token1;\n\n    uint112 private reserve0; // uses single storage slot, accessible via getReserves\n    uint112 private reserve1; // uses single storage slot, accessible via getReserves\n    uint32 private blockTimestampLast; // uses single storage slot, accessible via getReserves\n\n    uint256 public price0CumulativeLast;\n    uint256 public price1CumulativeLast;\n    uint256 public kLast; // reserve0 * reserve1, as of immediately after the most recent liquidity event\n\n    uint256 private unlocked = 1;\n    modifier lock() {\n        require(unlocked == 1, 'BakerySwapPair: LOCKED');\n        unlocked = 0;\n        _;\n        unlocked = 1;\n    }\n\n    function getReserves()\n        public\n        view\n        returns (\n            uint112 _reserve0,\n            uint112 _reserve1,\n            uint32 _blockTimestampLast\n        )\n    {\n        _reserve0 = reserve0;\n        _reserve1 = reserve1;\n        _blockTimestampLast = blockTimestampLast;\n    }\n\n    function _safeTransfer(\n        address token,\n        address to,\n        uint256 value\n    ) private {\n        (bool success, bytes memory data) = token.call(abi.encodeWithSelector(SELECTOR, to, value));\n        require(success && (data.length == 0 || abi.decode(data, (bool))), 'BakerySwapPair: TRANSFER_FAILED');\n    }\n\n    event Mint(address indexed sender, uint256 amount0, uint256 amount1);\n    event Burn(address indexed sender, uint256 amount0, uint256 amount1, address indexed to);\n    event Swap(\n        address indexed sender,\n        uint256 amount0In,\n        uint256 amount1In,\n        uint256 amount0Out,\n        uint256 amount1Out,\n        address indexed to\n    );\n    event Sync(uint112 reserve0, uint112 reserve1);\n\n    constructor() public {\n        factory = msg.sender;\n    }\n\n    // called once by the factory at time of deployment\n    function initialize(address _token0, address _token1) external {\n        require(msg.sender == factory, 'BakerySwapPair: FORBIDDEN'); // sufficient check\n        token0 = _token0;\n        token1 = _token1;\n    }\n\n    // update reserves and, on the first call per block, price accumulators\n    function _update(\n        uint256 balance0,\n        uint256 balance1,\n        uint112 _reserve0,\n        uint112 _reserve1\n    ) private {\n        require(balance0 <= uint112(-1) && balance1 <= uint112(-1), 'BakerySwapPair: OVERFLOW');\n        uint32 blockTimestamp = uint32(block.timestamp % 2**32);\n        uint32 timeElapsed = blockTimestamp - blockTimestampLast; // overflow is desired\n        if (timeElapsed > 0 && _reserve0 != 0 && _reserve1 != 0) {\n            // * never overflows, and + overflow is desired\n            price0CumulativeLast += uint256(UQ112x112.encode(_reserve1).uqdiv(_reserve0)) * timeElapsed;\n            price1CumulativeLast += uint256(UQ112x112.encode(_reserve0).uqdiv(_reserve1)) * timeElapsed;\n        }\n        reserve0 = uint112(balance0);\n        reserve1 = uint112(balance1);\n        blockTimestampLast = blockTimestamp;\n        emit Sync(reserve0, reserve1);\n    }\n\n    // if fee is on, mint liquidity equivalent to 1/6th of the growth in sqrt(k)\n    function _mintFee(uint112 _reserve0, uint112 _reserve1) private returns (bool feeOn) {\n        address feeTo = IBakerySwapFactory(factory).feeTo();\n        feeOn = feeTo != address(0);\n        uint256 _kLast = kLast; // gas savings\n        if (feeOn) {\n            if (_kLast != 0) {\n                uint256 rootK = SafeMath.sqrt(uint256(_reserve0).mul(_reserve1));\n                uint256 rootKLast = SafeMath.sqrt(_kLast);\n                if (rootK > rootKLast) {\n                    uint256 numerator = totalSupply.mul(rootK.sub(rootKLast));\n                    uint256 denominator = rootK.mul(5).add(rootKLast);\n                    uint256 liquidity = numerator / denominator;\n                    if (liquidity > 0) _mint(feeTo, liquidity);\n                }\n            }\n        } else if (_kLast != 0) {\n            kLast = 0;\n        }\n    }\n\n    // this low-level function should be called from a contract which performs important safety checks\n    function mint(address to) external lock returns (uint256 liquidity) {\n        (uint112 _reserve0, uint112 _reserve1, ) = getReserves(); // gas savings\n        uint256 balance0 = IBEP20(token0).balanceOf(address(this));\n        uint256 balance1 = IBEP20(token1).balanceOf(address(this));\n        uint256 amount0 = balance0.sub(_reserve0);\n        uint256 amount1 = balance1.sub(_reserve1);\n\n        bool feeOn = _mintFee(_reserve0, _reserve1);\n        uint256 _totalSupply = totalSupply; // gas savings, must be defined here since totalSupply can update in _mintFee\n        if (_totalSupply == 0) {\n            liquidity = SafeMath.sqrt(amount0.mul(amount1)).sub(MINIMUM_LIQUIDITY);\n            _mint(address(0), MINIMUM_LIQUIDITY); // permanently lock the first MINIMUM_LIQUIDITY tokens\n        } else {\n            liquidity = SafeMath.min(amount0.mul(_totalSupply) / _reserve0, amount1.mul(_totalSupply) / _reserve1);\n        }\n        require(liquidity > 0, 'BakerySwapPair: INSUFFICIENT_LIQUIDITY_MINTED');\n        _mint(to, liquidity);\n\n        _update(balance0, balance1, _reserve0, _reserve1);\n        if (feeOn) kLast = uint256(reserve0).mul(reserve1); // reserve0 and reserve1 are up-to-date\n        emit Mint(msg.sender, amount0, amount1);\n    }\n\n    // this low-level function should be called from a contract which performs important safety checks\n    function burn(address to) external lock returns (uint256 amount0, uint256 amount1) {\n        (uint112 _reserve0, uint112 _reserve1, ) = getReserves(); // gas savings\n        address _token0 = token0; // gas savings\n        address _token1 = token1; // gas savings\n        uint256 balance0 = IBEP20(_token0).balanceOf(address(this));\n        uint256 balance1 = IBEP20(_token1).balanceOf(address(this));\n        uint256 liquidity = balanceOf[address(this)];\n\n        bool feeOn = _mintFee(_reserve0, _reserve1);\n        uint256 _totalSupply = totalSupply; // gas savings, must be defined here since totalSupply can update in _mintFee\n        amount0 = liquidity.mul(balance0) / _totalSupply; // using balances ensures pro-rata distribution\n        amount1 = liquidity.mul(balance1) / _totalSupply; // using balances ensures pro-rata distribution\n        require(amount0 > 0 && amount1 > 0, 'BakerySwapPair: INSUFFICIENT_LIQUIDITY_BURNED');\n        _burn(address(this), liquidity);\n        _safeTransfer(_token0, to, amount0);\n        _safeTransfer(_token1, to, amount1);\n        balance0 = IBEP20(_token0).balanceOf(address(this));\n        balance1 = IBEP20(_token1).balanceOf(address(this));\n\n        _update(balance0, balance1, _reserve0, _reserve1);\n        if (feeOn) kLast = uint256(reserve0).mul(reserve1); // reserve0 and reserve1 are up-to-date\n        emit Burn(msg.sender, amount0, amount1, to);\n    }\n\n    // this low-level function should be called from a contract which performs important safety checks\n    function swap(\n        uint256 amount0Out,\n        uint256 amount1Out,\n        address to\n    ) external lock {\n        require(amount0Out > 0 || amount1Out > 0, 'BakerySwapPair: INSUFFICIENT_OUTPUT_AMOUNT');\n        (uint112 _reserve0, uint112 _reserve1, ) = getReserves(); // gas savings\n        require(amount0Out < _reserve0 && amount1Out < _reserve1, 'BakerySwapPair: INSUFFICIENT_LIQUIDITY');\n\n        uint256 balance0;\n        uint256 balance1;\n        {\n            // scope for _token{0,1}, avoids stack too deep errors\n            address _token0 = token0;\n            address _token1 = token1;\n            require(to != _token0 && to != _token1, 'BakerySwapPair: INVALID_TO');\n            if (amount0Out > 0) _safeTransfer(_token0, to, amount0Out); // optimistically transfer tokens\n            if (amount1Out > 0) _safeTransfer(_token1, to, amount1Out); // optimistically transfer tokens\n            balance0 = IBEP20(_token0).balanceOf(address(this));\n            balance1 = IBEP20(_token1).balanceOf(address(this));\n        }\n        uint256 amount0In = balance0 > _reserve0 - amount0Out ? balance0 - (_reserve0 - amount0Out) : 0;\n        uint256 amount1In = balance1 > _reserve1 - amount1Out ? balance1 - (_reserve1 - amount1Out) : 0;\n        require(amount0In > 0 || amount1In > 0, 'BakerySwapPair: INSUFFICIENT_INPUT_AMOUNT');\n        {\n            // scope for reserve{0,1}Adjusted, avoids stack too deep errors\n            uint256 balance0Adjusted = balance0.mul(1000).sub(amount0In.mul(3));\n            uint256 balance1Adjusted = balance1.mul(1000).sub(amount1In.mul(3));\n            require(\n                balance0Adjusted.mul(balance1Adjusted) >= uint256(_reserve0).mul(_reserve1).mul(1000**2),\n                'BakerySwapPair: K'\n            );\n        }\n\n        _update(balance0, balance1, _reserve0, _reserve1);\n        emit Swap(msg.sender, amount0In, amount1In, amount0Out, amount1Out, to);\n    }\n\n    // force balances to match reserves\n    function skim(address to) external lock {\n        address _token0 = token0; // gas savings\n        address _token1 = token1; // gas savings\n        _safeTransfer(_token0, to, IBEP20(_token0).balanceOf(address(this)).sub(reserve0));\n        _safeTransfer(_token1, to, IBEP20(_token1).balanceOf(address(this)).sub(reserve1));\n    }\n\n    // force reserves to match balances\n    function sync() external lock {\n        _update(IBEP20(token0).balanceOf(address(this)), IBEP20(token1).balanceOf(address(this)), reserve0, reserve1);\n    }\n}\n",
  "sourcePath": "/home/apoorva/Documents/projects/BlueBerrySwap/BlueBerrySwapCore/contracts/BakerySwapPair.sol",
  "compiler": {
    "name": "solc",
    "version": "0.5.16+commit.9c3226ce.Emscripten.clang"
  },
  "schemaVersion": "3.4.3",
  "updatedAt": "2021-09-05T12:31:08.679Z",
  "devdoc": {
    "methods": {}
  },
  "userdoc": {
    "methods": {}
  }
}